S01700004763634170706C69636174696F6E312E737265635B
S11300000C9434000C943E000C943E000C943E007E
S11300100C943E000C943E000C943E000C943E0064
S11300200C943E000C943E000C943E000C943E0054
S11300300C943E000C943E000C943E000C943E0044
S11300400C943E000C943E000C943E000C943E0034
S11300500C943E000C943E000C943E000C943E0024
S11300600C943E000C943E0011241FBECFEFD8E048
S1130070DEBFCDBF0E9478000C94A0000C94000059
S11300808CEF8AB983E084B9EAE7F0E086E88083FC
S113009080E480937C00808180648083808186FDFD
S11300A0FDCF8091780090917900969587959695EB
S11300B087959695879508958CEF8AB983E084B9DE
S11300C0EAE7F0E086E8808381E480937C00808125
S11300D080648083808186FDFDCF8091780090913B
S11300E07900969587959695879596958795089521
S11300F0C8ECD0E00E9440008C010E945C00AC017E
S1130100C801110FAA0BBB0B052E000C660B770B55
S1130110841B950BA60BB70B282F220F220F2BB98C
S1130120807C9927AA27BB27689415F8B695A795CC
S1130130979587951694D1F785B92197D9F6D8CF95
S1070140F894FFCF5D
S9030000FC
