S00D00004C414231372E73726563E0
S11300000C9434000C943E000C943E000C943E007E
S11300100C943E000C943E000C943E000C943E0064
S11300200C943E000C943E000C943E000C9454003E
S11300300C9460000C943E000C943E000C943E0022
S11300400C943E000C943E000C943E000C943E0034
S11300500C943E000C943E000C943E000C943E0024
S11300600C943E000C943E0011241FBECFEFD8E048
S1130070DEBFCDBF0E946C000C9476000C9400008F
S11300809C01E1E8F0E0908199609083EFE6F0E074
S113009090819660908330938900209388007093B8
S11300A08B0060938A0008951F920F920FB60F92EF
S11300B01124299A78940F900FBE0F901F901895D1
S11300C01F920F920FB60F921124299878940F90D3
S11300D00FBE0F901F90189581E084B964EF71E012
S11300E084E893E00E9440007894FFCFF894FFCF17
S9030000FC
