:020000020000FC
:100000000C9402000FE004B90CEF0AB920E02F9322
:1000100020E02F9320E02F9320E02F9320E02F93D8
:1000200020E02F9304ED043688F4023390F4093174
:1000300098F40A30A0F40530A8F40130B0F42F93FE
:100040003F93AF935F936F937F9312C07395045662
:10005000EACF63950253E7CF53950951E4CFA395B7
:100060000A50E1CF33950550DECF23950150DBCF09
:10007000C6B1C170C13029F0C6B1C230C27019F02A
:10008000F7CF939502C09A9500C0903059F0913007
:10009000E1F0923069F19330F1F19430F1F1953063
:1000A000F1F1E6CF40E076D04BB9426045B9A3D03C
:1000B00040E070D04BB9446045B99DD0422F6AD022
:1000C0000BB9186015B997D0D3CF41E063D04BB9C5
:1000D000426045B990D040E05DD04BB9446045B92D
:1000E0008AD0432F57D00BB9186015B984D0C0CF30
:1000F00042E050D04BB9426045B97DD040E04AD093
:100100004BB9446045B977D04A2F44D00BB9186039
:1001100015B971D0ADCF05D0ABCF16D0A9CF27D0B0
:10012000A7CF43E037D04BB9426045B964D040E037
:1001300031D04BB9446045B95ED0452F2BD00BB9B7
:10014000186015B958D0089544E024D04BB94260E6
:1001500045B951D040E01ED04BB9446045B94BD0B1
:10016000462F18D00BB9186015B945D0089545E051
:1001700011D04BB9426045B93ED040E00BD04BB9ED
:10018000446045B938D0472F05D00BB9186015B970
:1001900032D00895403099F0413099F0423099F0D2
:1001A0004330A1F04430A9F04530B1F04630B9F009
:1001B0004730C1F04830C9F04930D1F008950CEF14
:1001C000089508E108950CE611E008950CE311E0AC
:1001D000089508E911E0089504EB11E0089501EF96
:1001E00011E008950CE107D008950CEF11E0089597
:1001F0000CE911E00895FF27EE27FA95F1F7FA953B
:04020000E1F7089585
:00000001FF
