S00A000050332E7372656397
S11300000C9434000C9451000C9451000C94510045
S11300100C9451000C9451000C9451000C94510018
S11300200C9451000C9451000C9451000C94510008
S11300300C9451000C9451000C9451000C945100F8
S11300400C9451000C9451000C9451000C945100E8
S11300500C9451000C9451000C9451000C945100D8
S11300600C9451000C94510011241FBECFEFD8E022
S1130070DEBFCDBF11E0A0E0B1E0E6EEF1E002C0EA
S113008005900D92A230B107D9F721E0A2E0B1E0CA
S113009001C01D92A430B207E1F70E94BD000C9488
S11300A0F1000C9400008295807F8BB92B9885E039
S11300B08A95F1F700002B9A95E09A95F1F70000E4
S11300C02B988FE891E00197F1F700C000000895A4
S11300D0CF93C82F82958F700E9453008C2F0E945B
S11300E05300CF9108952C9A0E9468002C9808958B
S11300F08AE184B980EF8AB92FEF80E792E021503A
S113010080409040E1F700C000002C982B9880912B
S1130110000180620E9468008FE496E40197F1F781
S113012000C000008091000180620E94680087E5A1
S113013092E00197F1F700C0000080910001806215
S11301400E9468008091000180620E94680084E03F
S1130150809302018CE00E94680081E00E946800A4
S11301608FE39FE10197F1F700C0000082E08093E4
S1130170030186E00E9468000895CF93DF9300D0C6
S11301801F92CDB7DEB788EF84B98CEF8AB90E948D
S113019078002FEF83ED90E3215080409040E1F709
S11301A000C0000081E595E59A83898381E48B830F
S11301B08E010F5F1F4F7E01E4E0EE0EF11CF8018B
S11301C081918F010E947300FFEF21EE84E0F150D2
S11301D020408040E1F700C000000E151F0579F7AC
S10901E0FFCFF894FFCFED
S10501E608000B
S9030000FC
