:020000020000FC
:1000000000C0259A05E005BD02E004BD0FEF07BD65
:1000100000270430D9F143B14170413049F043B178
:100020004270423091F043B144704430C1F0F1CF9E
:100030002D9A20D02D981ED00395502F51705130FD
:1000400019F15370533001F1E4CF2D9A13D02D984C
:1000500011D00395502F52705230B1F0DACF039582
:100060002D9A08D02D9806D00395502F54705430F7
:1000700059F0CFCF2227332714E63A95F1F72A9586
:10008000E1F71A95D1F708956395C3CF643019F05D
:0A00900000276627BECF2D9ABCCFD3
:00000001FF
