:020000020000FC
:1000000000C00CE10AB905E005BD02E004BD0FEF38
:1000100007BD01E000936E000CE10BB9002706BD9F
:1000200044275527CC273BD00BB9443049F103B1C5
:100030000470043049F013B11270123079F023B11A
:100040002170213099F0F1CF5A9A29D05A9827D0AF
:100050004395413099F0433089F0E7CF5B9A1FD048
:100060005B981DD04395423049F0DFCF5C9A17D0A2
:100070005C9815D04395443009F0D7CF5395D5CF30
:10008000543051F05A9A0BD05A985B9A08D05B982A
:100090005C9A05D05C98B5CF5FEF5BB9FFCF84E683
:1000A000662777276A95F1F77A95E1F78A95D1F770
:0200B0000895B1
:00000001FF
