S00D00004C414231362E73726563E1
S11300000C9434000C943E000C943E000C943E007E
S11300100C943E000C943E000C943E000C943E0064
S11300200C943E000C943E000C943E000C94D900B9
S11300300C94FD000C943E000C943E000C943E0085
S11300400C943E000C943E000C943E000C943E0034
S11300500C943E000C943E000C943E000C943E0024
S11300600C943E000C943E0011241FBECFEFD8E048
S1130070DEBFCDBF0E9425010C942F010C9400001B
S11300809C01E1E8F0E0908199609083EFE6F0E074
S113009090819660908330938900209388007093B8
S11300A08B0060938A0080E090E0089587B18130EE
S11300B081F48CEF8BB98FE99CE80197F1F700C0CC
S11300C000001BB8EFE9FCE83197F1F700C000002D
S11300D0089587B1803191F582E090E061E070E0AD
S11300E04BB19B01082E02C0220F331F0A94E2F782
S11300F0242B2BB9EFE3FFE13197F1F700C00000A7
S113010001968830910561F787E090E061E070E046
S11301103BB1AB01082E02C0440F551F0A94E2F70D
S1130120242F209523232BB9EFE3FFE13197F1F737
S113013000C0000001978130910551F70895AF92F6
S1130140BF92CF92DF92EF92FF920F931F93CF93C0
S1130150DF937C018B015C018CE0A81A8EEFB80A56
S11301606B01E701B601CE010E944000CC59DF4F7C
S113017084E6C81AD108AC16BD06A1F7E701CC5035
S1130180DE4F045F1140B801CE010E944000C45606
S1130190D1090C591F4FEC16FD06A9F7DF91CF9139
S11301A01F910F91FF90EF90DF90CF90BF90AF9091
S11301B008951F920F920FB60F9211242F933F931D
S11301C04F935F936F937F938F939F93AF93BF935B
S11301D0EF93FF930E945600FF91EF91BF91AF916F
S11301E09F918F917F916F915F914F913F912F914B
S11301F00F900FBE0F901F9018951F920F920FB67D
S11302000F9211242F933F934F935F936F937F9398
S11302108F939F93AF93BF93EF93FF9364EF71E03A
S113022084EF91E00E949F00FF91EF91BF91AF9105
S11302309F918F917F916F915F914F913F912F91FA
S11302400F900FBE0F901F9018958CEF8AB964EF32
S113025071E084EF91E00E9440007894FFCFF8941D
S1050260FFCFCA
S9030000FC
