:100000000C9443000C944D000C944D000C944D0046
:100010000C944D000C944D000C944D000C944D002C
:100020000C944D000C944D000C944D000C944D001C
:100030000C944D000C944D000C944D000C944D000C
:100040000C944D000C944D000C944D000C944D00FC
:100050000C944D000C944D000C944D000C944D00EC
:100060000C944D000C944D0005A84CCDB2D44EB963
:100070003836A9020C50B9918688083CA6AAAA2A4B
:10008000BE000000803F11241FBECFEFD8E0DEBFCE
:10009000CDBF0E94B6000C94E1020C9400008CEFDE
:1000A0008BB98FEF9CE70197F1F700C000001BB8F8
:1000B0008FEF9CE70197F1F700C0000008958FEFE4
:1000C00090E09C012C7F33272BB920EA2A95F1F789
:1000D0000197B8F780E090E09C012C7F33272BB983
:1000E00020EA2A95F1F70196811521E09207A1F700
:1000F0000895CF92DF92EF92FF92C12CD12C76011E
:1001000021E73DE74CEB53E4C701B6010E94E4014F
:100110000E94510220E030E04EEF52E40E94E401E0
:1001200020E030E04EEF52E40E94C8000E94390106
:100130006BB98FE99FE00197F1F700C0000027E15C
:1001400037EB41ED58E3C701B6010E94C8006B01CF
:100150007C0126E53EE049E450E40E943401181693
:100160007CF6FF90EF90DF90CF9008958CEF8AB9E6
:1001700086B1811103C00E945F00FACF86B1813041
:1001800019F40E944F00F4CF0E947900F1CF50582B
:10019000BB27AA270E94DF000C94AA010E949C01A1
:1001A00038F00E94A30120F039F49F3F19F426F49F
:1001B0000C9499010EF4E095E7FB0C949301E92F60
:1001C0000E94BB0158F3BA176207730784079507AB
:1001D00020F079F4A6F50C94DD010EF4E0950B2ED9
:1001E000BA2FA02D0B01B90190010C01CA01A00189
:1001F0001124FF27591B99F0593F50F4503E68F1E4
:100200001A16F040A22F232F342F4427585FF3CF24
:10021000469537952795A795F0405395C9F77EF4F5
:100220001F16BA0B620B730B840BBAF09150A1F03E
:10023000FF0FBB1F661F771F881FC2F70EC0BA0FC4
:10024000621F731F841F48F4879577956795B7954C
:10025000F7959E3F08F0B0CF9395880F08F0992747
:10026000EE0F9795879508950E946F0108F481E03D
:1002700008950E9440016894B1110C94DE01089524
:100280000E94C30188F09F5798F0B92F9927B75162
:10029000B0F0E1F0660F771F881F991F1AF0BA952A
:1002A000C9F714C0B13091F00E94DD01B1E00895AA
:1002B0000C94DD01672F782F8827B85F39F0B93F9C
:1002C000CCF3869577956795B395D9F73EF49095DD
:1002D0008095709561957F4F8F4F9F4F0895990F2F
:1002E0000008550FAA0BE0E8FEEF16161706E80700
:1002F000F907C0F012161306E407F50798F0621B21
:10030000730B840B950B39F40A2661F0232B242BF5
:10031000252B21F408950A2609F4A140A6958FEF14
:10032000811D811D089597F99F6780E870E060E066
:1003300008959FEF80EC089500240A94161617067E
:1003400018060906089500240A94121613061406C6
:1003500005060895092E0394000C11F4882352F029
:10036000BB0F40F4BF2B11F460FF04C06F5F7F4FE1
:100370008F4F9F4F089557FD9058440F551F59F0C8
:100380005F3F71F04795880F97FB991F61F09F3F82
:1003900079F087950895121613061406551FF2CFAB
:1003A0004695F1DF08C0161617061806991FF1CFFB
:1003B00086957105610508940895E894BB27662722
:1003C0007727CB0197F908950E94F7010C94AA01B1
:1003D0000E949C0138F00E94A30120F0952311F0A7
:1003E0000C9493010C94990111240C94DE010E9449
:1003F000BB0170F3959FC1F3950F50E0551F629FAD
:10040000F001729FBB27F00DB11D639FAA27F00D6D
:10041000B11DAA1F649F6627B00DA11D661F829F94
:100420002227B00DA11D621F739FB00DA11D621F79
:10043000839FA00D611D221F749F3327A00D611D96
:10044000231F849F600D211D822F762F6A2F112478
:100450009F5750409AF0F1F088234AF0EE0FFF1FAB
:10046000BB1F661F771F881F91505040A9F79E3F02
:10047000510580F00C9493010C94DE015F3FE4F38E
:10048000983ED4F3869577956795B795F795E79558
:100490009F5FC1F7FE2B880F911D9695879597F961
:1004A00008959F930E945B020F9007FCEE5F0C94EF
:1004B00084020C9499010E94C301D8F3E894E0E00F
:1004C000BB279F57F0F02AED3FE049EC06C0EE0F46
:1004D000BB0F661F771F881F28F0B23A62077307A9
:1004E000840728F0B25A620B730B840BE3959A953C
:1004F00072F7803830F49A95BB0F661F771F881FFC
:10050000D2F790480C949A02EF93E0FF07C0A2EA5A
:100510002AED3FE049EC5FEB0E94DF000E94AA0158
:100520000F90039401FC9058E8E6F0E00C94A602CA
:100530009F3F31F0915020F4879577956795B79557
:10054000880F911D9695879597F908959F938F939E
:100550007F936F93FF93EF939B01AC010E94E401A3
:10056000EF91FF910E94BA022F913F914F915F91BD
:100570000C94E401DF93CF931F930F93FF92EF92BC
:10058000DF927B018C01689406C0DA2EEF010E9495
:10059000F701FE01E894A59125913591459155917A
:1005A000A6F3EF010E94DF00FE019701A801DA9493
:1005B00069F7DF90EF90FF900F911F91CF91DF913E
:0605C0000895F894FFCF3E
:00000001FF
