:100000000C9434000C943E000C943E000C943E0082
:100010000C943E000C943E000C943E000C943E0068
:100020000C943E000C943E000C943E000C943E0058
:100030000C943E000C943E000C943E000C943E0048
:100040000C943E000C943E000C943E000C943E0038
:100050000C943E000C943E000C943E000C943E0028
:100060000C943E000C943E0011241FBECFEFD8E04C
:10007000DEBFCDBF0E9440000C9488000C940000AD
:100080008CEF8AB961E070E0ECEF87B1813079F4F0
:10009000EBB98FE99CE80197F1F700C000001BB8AD
:1000A000AFE9BCE81197F1F700C000002EC082E074
:1000B00090E04BB19B01082E02C0220F331F0A941F
:1000C000E2F7242B2BB9AFE3BFE11197F1F700C0A2
:1000D000000001968830910561F717C03BB1AB0174
:1000E000082E02C0440F551F0A94E2F7242F2095D2
:1000F00023232BB9AFE3BFE11197F1F700C0000054
:1001000001978130910551F7C0CF87E090E0E6CFAD
:04011000F894FFCF91
:00000001FF
