S00D00004C414231362E73726563E1
S11300000C9434000C943E000C943E000C943E007E
S11300100C943E000C943E000C943E000C943E0064
S11300200C943E000C943E000C943E000C943E0054
S11300300C943E000C943E000C943E000C943E0044
S11300400C943E000C943E000C943E000C943E0034
S11300500C943E000C943E000C943E000C943E0024
S11300600C943E000C943E0011241FBECFEFD8E048
S1130070DEBFCDBF0E9481000C9492000C9400005E
S11300808CEF8BB98FEF9CE70197F1F700C000006C
S11300901BB88FEF9CE70197F1F700C000000895AB
S11300A082E090E061E070E04BB19B01082E02C059
S11300B0220F331F0A94E2F7242B2BB9EFE0FEE062
S11300C03197F1F700C0000001968830910561F77F
S11300D061E070E03BB1AB01082E02C0440F551F34
S11300E00A94E2F7242F209523232BB9EFE0FEE0B6
S11300F03197F1F700C0000001978230910551F764
S113010008958CEF8AB917B886B1813019F40E942A
S11301104000FACF86B1823019F40E945000F4CF27
S10B01201BB8FECFF894FFCFD9
S9030000FC
