:100000000C9434000C943E000C943E000C943E0082
:100010000C943E000C943E000C943E000C943E0068
:100020000C943E000C943E000C943E000C943E0058
:100030000C943E000C943E000C943E000C943E0048
:100040000C943E000C943E000C943E000C943E0038
:100050000C943E000C943E000C943E000C943E0028
:100060000C943E000C943E0011241FBECFEFD8E04C
:10007000DEBFCDBF0E9477000C948B000C94000073
:1000800080E387B988EF8093B8008FE39CE90197FC
:10009000F1F700C000000895ECEBF0E0108294EA64
:1000A000908390819923ECF79091B900987F9830D4
:1000B00051F48093BB0084E88093BC00ECEBF0E04B
:1000C00080818823ECF781E008958093BB0084E869
:1000D0008093BC00ECEBF0E080818823ECF79091FA
:1000E000B900987F81E0983109F480E008950E947A
:1000F00040000CEB10E0C4E981E00E944C008FE06E
:100100000E946500F801C0838FE99FE00197F1F735
:0A01100000C00000F1CFF894FFCF0B
:00000001FF
