:020000020000FC
:100000000C9402000FEF04B90AB900EF102F143658
:1000100030F41A3048F41A3060F000C0FFCF1456A4
:1000200043951436E0F706C01A5043951A30E0F7AE
:1000300001C0412F4030A1F04130B1F04230C1F059
:100040004330E1F0443001F1453021F1463041F1D7
:10005000473061F1483071F1493091F14427D7CFF1
:100060006CEF6BB933D0D3CF6CE06BB92FD0CFCF5F
:100070006CE66BB961E065B929D0C9CF6CE36BB9A7
:1000800061E065B923D0C3CF62E96BB961E065B9BE
:100090001DD0BDCF61EB6BB961E065B917D0B7CFAB
:1000A00061EF6BB961E065B911D0B1CF6CE16BB9AB
:1000B0000DD0ADCF6CEF6BB961E065B907D0A7CFBC
:1000C0006CE96BB961E065B901D0A1CF2227332774
:1000D00054E62A95F1F73A95E1F75A95D1F7089544
:00000001FF
